:020000040800F2
:10000000980500207D100008C90F0008CB0F0008DC
:10001000CD0F0008CF0F0008D10F0008000000002E
:10002000000000000000000000000000D30F0008E6
:10003000D50F000800000000D70F0008D90F0008F6
:100040009D100008A1100008A5100008A9100008C4
:10005000AD100008B1100008B5100008B910000874
:10006000BD100008C1100008C5100008C910000824
:10007000CD100008D1100008D5100008D9100008D4
:10008000DD100008DD0F0008E1100008E510000891
:10009000E9100008ED100008F1100008F510000844
:1000A000F9100008FD1000080111000805110008F2
:1000B0000911000800000000000000000D110008F8
:1000C0001111000815110008191100081D11000870
:1000D0002111000825110008291100082D11000820
:1000E0003111000835110008000000000000000078
:1000F0000000000000000000000000000000000000
:100100000000000039110008000000003D11000847
:100110000000000000000000411100084511000827
:10012000491100084D11000851110008551100082F
:10013000591100080000000000000000000000004D
:100140005D110008611100086511000869110008BF
:100150006D1100087111000875110008791100086F
:100160007D110008811100088511000800000000C1
:10017000891100088D11000891110008000000008D
:1001800095110008991100089D1100082DE9FC4700
:10019000050075D0DFF8EC76DFF8F866BC68D7F8B4
:1001A0000C802878C10604F00C0408F0030857D529
:1001B00024B10C2C08BFB8F1010F2CD1386881078D
:1001C00002D5A86900285BD0396808074EBF396896
:1001D00071680909286A01F0F001814206D200F035
:1001E00017FB00284CD100F01AFA07E000F017FACC
:1001F00024B9286A00F00CFB002841D100F0BFFAB6
:10020000BA6800F0A1FADFF88406006800F056FB37
:10021000010025D0FDE1A869A0B3396841F00101D2
:10022000396000F06DFB81463868810707D400F023
:1002300067FBA0EB09000328F6D30320E9E1386847
:1002400040F0080038603A68296A22F0F0020A4358
:100250003A607868E96920F47F4040EA01207860DC
:100260002878C10755D5082C04D00C2C08BFB8F14C
:10027000030F17D1386881034BD56868002848D12F
:100280000120C6E138684008400000F0DDF98146F1
:1002900038688107E4D500F033FBA0EB09000328A0
:1002A000F6D3CAE76868B0F5803F04D1386840F4F7
:1002B0008030386011E0B0F5A02F386806D140F4E6
:1002C00080203860396841F4803105E020F48030C6
:1002D0003860396821F480213960686860B100F0C5
:1002E0000FFB81463868810313D400F009FBA0EBB3
:1002F00009006528F6D3A0E700F002FB81463868C4
:10030000810306D500F0FCFAA0EB09006528F6D3BE
:1003100093E72878810713D5042C04D00C2C08BF50
:10032000B8F1020F22D13868410502D5E8680028EB
:10033000A6D07868296920F0F85040EA016078601A
:100340002878010742D56869002870682FD040F0EE
:100350000100706000F0D4FA80467068810735D4DF
:1003600000F0CEFA00F057F9F7D366E7E86878B105
:10037000396841F48071396000F0C2FA804638680B
:100380004105D6D400F0BCFA00F045F9F7D354E7A4
:10039000386820F4807000F057F9804638684105CD
:1003A000CED500F0ADFA00F036F9F7D345E74008B6
:1003B0004000706000F0A4FA80467068810705D59F
:1003C00000F09EFA00F027F9F7D336E728784107C6
:1003D00067D5B86DC1004FF000080AD4B86D40F081
:1003E0008050B8654FF00108B86D00F08050009063
:1003F0000098DFF8A4A4DAF80000C10513D4DAF8F5
:10040000000040F48070CAF8000000F079FA8146DC
:10041000DAF80000C10506D400F072FAA0EB09007A
:100420000328F5D309E7A868012804D1306840F013
:100430000100306010E00528306806D140F004006B
:100440003060316841F0010105E040084000306053
:10045000316821F004013160A86841F2893960B146
:1004600000F04EFA82463068810713D400F048FA53
:10047000A0EB0A004845F6D3DFE600F041FA8246D9
:100480003068810706D500F03BFAA0EB0A0048452A
:10049000F6D3D2E6B8F1000F03D0B86D20F080504B
:1004A000B8652878810621D5686A0028B0680ED022
:1004B00040F00100B06000F023FA8046B068810788
:1004C00014D400F01DFA00F0A6F8F7D3B5E6400802
:1004D0004000B06000F014FA8046B068810705D58E
:1004E00000F00EFA00F097F8F7D3A6E6A86A002805
:1004F00000F08E80022877D1F868EA6A00F00301E4
:10050000914201BF00F0700110312A6BB1EB021F64
:100510001DD16A6B00F4FE41B1EB022F02BF00F067
:100520007841AA6BB1EBC26F11D1EA6B00F4C00144
:1005300001F500115208B1EB425F08D1296C00F0BF
:10054000C06000F100704908B0EB416F40D00C2C46
:100550004BD0386841013FF593AE00F072F8044685
:100560003868810105D500F0CBF9001B0328F7D3CB
:1005700063E6FA68DFF82403E96A0240286B0A435D
:10058000401E42EA0012E96B686B490842EA002209
:10059000286C491E400842EA4152401E42EA40622D
:1005A000A86B42EAC062FA60396841F08071396034
:1005B000F86840F08070F86000F0A2F904463868EE
:1005C000810125D400F09CF9001B0328F7D334E601
:1005D000386881011CD4386840F080703860F96850
:1005E00041F08071F960E7E70C2C3FF449AE00F070
:1005F00028F804463868810105D500F081F9001B10
:100600000328F7D319E6F968DFF894020140F9608E
:100610000020BDE8F687A0EB080003287047386883
:1006200040F0080038603968286A21F0F001014381
:1006300039607968E86921F47F4141EA00217960F5
:100640007047386820F08070386000F059B92DE9A3
:10065000F0410400884655D0DFF84872386800F051
:100660000700404502D200F080F84BD12078DFF837
:100670001452810706D5A068A96801F0F0018142F3
:1006800000F06CF82078C1072AD56068032802D1F1
:1006900029688A0108E0022802D129688A0303E058
:1006A0000028296802D18A0702D42BE04A0529D5FF
:1006B000A968890840EA8100A86000F021F906468F
:1006C000A868616800F00C00B0EB810F08D000F062
:1006D00017F9801B41F289318842F1D3032031E0C0
:1006E0002078810706D5A068A96801F0F00188424A
:1006F00000F034F8386800F00700804504D200F0BC
:1007000034F801D001201DE02078420705D5A96802
:10071000E06821F4E0610143A9602178080706D56B
:10072000A968206921F4605141EAC001A96000F084
:1007300026F8AA6800F008F8BDE8F04153480068C0
:1007400000F0BCB8BDE8F0815749C2F30312895CE0
:100750004D4A01F01F01C8401060704704D2A968DB
:1007600021F0F0010843A86070473968C90848EAD9
:10077000C1013960386800F007004045704770B526
:10078000404B4A4D9868DC680022002110F00C00B4
:1007900004F00304464E03D00C2812D1012C1AD1C8
:1007A0001A68140704D43A4A1468C4F3032202E016
:1007B0001A68C2F303123F4C54F8222048B911467C
:1007C00024E0042808BF314620D008281ED129463D
:1007D0001CE00C281AD1D86800F00300022803D0CE
:1007E000032808BF2A4600E03246D968D868DB688B
:1007F000C0F306204243C1F30210C3F34161401C21
:10080000491CB2FBF0F04900B0FBF1F1084670BDA5
:100810007CB5294E044630680025C10002D500F0A1
:1008200075F80EE0316841F080513160306800F0B9
:1008300080500090009800F069F8316821F08051F4
:100840003160B0F5007F04D1802C0CD9A12C09D3E4
:1008500004E0802C88BF032505D801D1022502E0E1
:10086000702C00D101250F480168C90845EAC10173
:100870000160006800F00700A84201D0012076BDA9
:10088000002076BD001002400C000020080000206F
:100890009410024090100240007000408C809D0136
:1008A000FCFFEEFE002002400810000800127A0053
:1008B0000024F400280F00085810024070B50E4EB6
:1008C000044630780025A0B14FF47A710B4AB1FB91
:1008D000F0F11068B0FBF1F000F054F848B9102CBA
:1008E00007D2002221464FF0FF3000F02EF8B4600E
:1008F00000E00125284670BD000000200C0000200B
:1009000001484068704700BF00000020DFF8080081
:10091000006800F4C06070470070004009010200E8
:1009200002D4214881547047204B02F00F021A4430
:1009300002F8041C70471E490A6860F30A2240F25C
:10094000FA5060F31F420A60704770B5184B1C687C
:10095000C4F302230124C3F10705052D2EBF0F2583
:1009600004FA05F56D1E1E1D072E34BF0023DB1E85
:100970002940994004FA03F3BDE870405B1E1A4019
:100980001143CBE7401EB0F1807F01D301207047B7
:100990000849094A48600023F02010708B60072046
:1009A000086000207047000000E400E018ED00E05F
:1009B0000CED00E010E000E023ED00E0F0B597B0B2
:1009C00000F0F4F84421002206A800F005F91421F3
:1009D000002201A800F000F96E4CE06840F0805061
:1009E000E0600121E06800F08050009000986A48C3
:1009F000026861F34A2202604FF48071006800F4DB
:100A0000C06000900220009A0991102201210A92F0
:100A100012910690109011901422072115901690B3
:100A20001392149106A8FFF7B1FB00B1FEE70F2067
:100A30000321019002910022039204920592042165
:100A400001A8FFF704FE00B1FEE7206840F00200B5
:100A5000206000222168514C01F002010091142114
:100A60000098684600F0B8F8012101914FF48060C9
:100A7000022100900022039102926946204600F074
:100A8000C9F800224FF48061204600F08FF9444CF1
:100A90000020631C0025402600EB400180225A54B0
:100AA0006654A21C401C55546928F5DB00F052F82E
:100AB000661C00200022A31CC5F1FF0700EB4001CB
:100AC000401C755467545A546928F7DB00F042F80B
:100AD000142000F07FF96D1CEDB2EAE710B5314B40
:100AE00031491A68B2FBF1F148434FF47A74B0FB14
:100AF000F4F100E000BF0846411E0028FAD110BD05
:100B000070B504460725254E0120A84004420BD0AD
:100B100000F01AF84FF42F70FFF7E0FF002200F00A
:100B200014F84FF416700AE000F00EF84FF4AF70AE
:100B3000FFF7D4FF002200F008F84FF46170FFF7D0
:100B4000CDFF6D1EE0D570BD01224FF480613046AF
:100B500000F02CB938B572B60024114904EB4402F8
:100B60008D18641C2878FFF7CBFF6878FFF7C8FF63
:100B7000A878FFF7C5FF692CEFDB62B600224FF4BF
:100B80008061064800F012F9BDE83240012000F013
:100B900021B900004C1002400070004000040048E1
:100BA000100000200C00002040420F00094810B542
:100BB000016841F4807101600320FFF7BCFE002052
:100BC000FFF77CFE0024002814BF012400F016F972
:100BD000204610BD002002404018491C1CBFB1F146
:100BE000010100F8012DF9D170470EE00268436859
:100BF000024408305FEAC37C44BF4B445B1E52F89A
:100C000004CB43F804CB091FF9D150F8041B002989
:100C1000ECD170472DE9F84F0027674CDFF89C8135
:100C20004FF00F0902460B462EE0654EB24214BF4C
:100C30004FF0070E4FF0040E0EFA01F141EA050ED7
:100C4000604941F82CE0C643A1685D683140ED027F
:100C500048BF0143A160E1685D683140AD0248BF13
:100C60000143E16061685D683140AD0348BF014305
:100C70006160216806EA010C5968C90348BF40EA6F
:100C80000C0CC4F800C07F1C186830FA07F100F0A3
:100C90008B800121B9400840F5D04FEA470C03256D
:100CA00005FA0CF56FEA050E5D6805F00306012EE6
:100CB0001CBF05F00305022D10D19568DE680EEA11
:100CC000050506FA0CF635439560556825EA0101DD
:100CD0005D68C5F30015BD4029435160B9001D7919
:100CE00005F00305032D1ED0D5689E680EEA0505A4
:100CF00006FA0CF63543D5601D7905F00305022D83
:100D000011D1FD0802EB850501F01C06D5F820B0D5
:100D100009FA06FA2BEA0A0BD3F810A00AFA06F62B
:100D200046EA0B062E6215680EEA05061D7905F0E7
:100D3000030505FA0CF545EA060CC2F800C05D682B
:100D400015F4403F9FD0D8F800C01E4D4CF0010C68
:100D5000C8F800C04FEA970CD8F800E00EF0010E7A
:100D6000CDF800E001F00C01DDF800E055F82C5062
:100D700009FA01F6B543B2F1904F08BF4FF0000EEB
:100D800011D0114EB24208BF4FF0010E0BD00F4EE2
:100D9000B24208BF4FF0020E05D00D4EB2427FF4B2
:100DA00044AF4FF0030E47E7BDE8F18F0AB1816110
:100DB00070478162704700000004014060100240EB
:100DC00000100048080001400004004800080048E6
:100DD000000C004838B50446FFF792FD14F1010FEE
:100DE000054602D0044801786418FFF789FD401BCE
:100DF000A042FAD331BD00BF000000200A4881B0F4
:100E0000816841F001018160816801F00101009178
:100E10000099026842F080520260006800F0805041
:100E20000090009801B0704758100240F8B500F1EA
:100E300024010426CA69126803681C6891F82050CE
:100E400005F01C0506FA05F73A4210D067070ED5E3
:100E50001A68940603D41A6822F004021A6000F09B
:100E60003EF8C968002939D0BDE8F4400847022699
:100E700006FA05F73A4213D0A70711D51A68940667
:100E800005D41A6822F00A021A6001234B7000F0A0
:100E900026F800220A70896801B3BDE8F4400847CB
:100EA000082606FA05F52A4218D0220716D51C682E
:100EB00024F00E041C60012291F82030CC6903F06C
:100EC0001C039A406260012301228A614B70002258
:100ED0000A70096911B1BDE8F4400847F1BD91F805
:100EE0002020CB6902F01C0296405E607047000033
:100EF00030B4002512E050F8042BD30744BF4A4415
:100F0000521E091F042942F8045BFAD213468C07CB
:100F100044BF15809B1CC90748BF1D7050F8041BB7
:100F20000029E8D130BC7047A0860100400D0300C5
:100F3000801A060000350C0040420F0080841E001D
:100F400000093D0000127A000024F40000366E0112
:100F50000048E801006CDC0210B5074979441831FB
:100F6000064C7C44163404E00A68081D1144884786
:100F70000146A142F8D110BD2C0000004C00000039
:100F80004EF68851CEF20001086840F47000086007
:100F9000BFF34F8FBFF36F8F4FF00170E1EE100A78
:100FA000704700004DFFFFFF84010000100000208B
:100FB0000000000037FCFFFF10000000D000000020
:100FC0000000002000000000FEE7FEE7FEE7FEE76D
:100FD000FEE770477047704700F006B80148FFF71A
:100FE00025BF00004C0100200248416802788A18A1
:100FF00042607047000000200248016841F470011F
:101000000160704788ED00E0000000000000000073
:10101000010203040607080900F00DF8002801D0BA
:10102000FFF79AFFAFF300800020AFF30080FFF7D7
:10103000C5FC00F002F80120704700F001B8000084
:101040000746384600F002F8FBE7000080B5AFF332
:101050000080024A11001820ABBEFBE72600020008
:101060000548014603B4684680F30988AFF3008061
:10107000FFF786FFFFF7D0FFA5EDF5FE014880479B
:1010800001480047F90F0008611000080100000046
:10109000000000001000000000093D00FFF7FEBF47
:1010A000FFF7FEBFFFF7FEBFFFF7FEBFFFF7FEBF74
:1010B000FFF7FEBFFFF7FEBFFFF7FEBFFFF7FEBF64
:1010C000FFF7FEBFFFF7FEBFFFF7FEBFFFF7FEBF54
:1010D000FFF7FEBFFFF7FEBFFFF7FEBFFFF7FEBF44
:1010E000FFF7FEBFFFF7FEBFFFF7FEBFFFF7FEBF34
:1010F000FFF7FEBFFFF7FEBFFFF7FEBFFFF7FEBF24
:10110000FFF7FEBFFFF7FEBFFFF7FEBFFFF7FEBF13
:10111000FFF7FEBFFFF7FEBFFFF7FEBFFFF7FEBF03
:10112000FFF7FEBFFFF7FEBFFFF7FEBFFFF7FEBFF3
:10113000FFF7FEBFFFF7FEBFFFF7FEBFFFF7FEBFE3
:10114000FFF7FEBFFFF7FEBFFFF7FEBFFFF7FEBFD3
:10115000FFF7FEBFFFF7FEBFFFF7FEBFFFF7FEBFC3
:10116000FFF7FEBFFFF7FEBFFFF7FEBFFFF7FEBFB3
:10117000FFF7FEBFFFF7FEBFFFF7FEBFFFF7FEBFA3
:10118000FFF7FEBFFFF7FEBFFFF7FEBFFFF7FEBF93
:10119000FFF7FEBFFFF7FEBFFFF7FEBFFFF7FEBF83
:04000005080010617E
:00000001FF
